{
  "_format": "hh3-artifact-1",
  "contractName": "AgreementRoom",
  "sourceName": "contracts/AgreementRoom.sol",
  "abi": [
    {
      "anonymous": false,
      "inputs": [
        {
          "indexed": true,
          "internalType": "uint256",
          "name": "roomId",
          "type": "uint256"
        }
      ],
      "name": "AgreementFinalized",
      "type": "event"
    },
    {
      "anonymous": false,
      "inputs": [
        {
          "indexed": true,
          "internalType": "uint256",
          "name": "roomId",
          "type": "uint256"
        },
        {
          "indexed": false,
          "internalType": "string",
          "name": "analysisHash",
          "type": "string"
        }
      ],
      "name": "AnalysisSubmitted",
      "type": "event"
    },
    {
      "anonymous": false,
      "inputs": [
        {
          "indexed": true,
          "internalType": "uint256",
          "name": "roomId",
          "type": "uint256"
        },
        {
          "indexed": false,
          "internalType": "address",
          "name": "party",
          "type": "address"
        }
      ],
      "name": "PartyAgreed",
      "type": "event"
    },
    {
      "anonymous": false,
      "inputs": [
        {
          "indexed": true,
          "internalType": "uint256",
          "name": "roomId",
          "type": "uint256"
        },
        {
          "indexed": false,
          "internalType": "address",
          "name": "partyA",
          "type": "address"
        },
        {
          "indexed": false,
          "internalType": "address",
          "name": "partyB",
          "type": "address"
        },
        {
          "indexed": false,
          "internalType": "string",
          "name": "contractIPFSHash",
          "type": "string"
        }
      ],
      "name": "RoomCreated",
      "type": "event"
    },
    {
      "inputs": [
        {
          "internalType": "uint256",
          "name": "_roomId",
          "type": "uint256"
        }
      ],
      "name": "agree",
      "outputs": [],
      "stateMutability": "nonpayable",
      "type": "function"
    },
    {
      "inputs": [
        {
          "internalType": "address",
          "name": "_partyB",
          "type": "address"
        },
        {
          "internalType": "string",
          "name": "_contractIPFSHash",
          "type": "string"
        }
      ],
      "name": "createRoom",
      "outputs": [
        {
          "internalType": "uint256",
          "name": "",
          "type": "uint256"
        }
      ],
      "stateMutability": "nonpayable",
      "type": "function"
    },
    {
      "inputs": [],
      "name": "nextRoomId",
      "outputs": [
        {
          "internalType": "uint256",
          "name": "",
          "type": "uint256"
        }
      ],
      "stateMutability": "view",
      "type": "function"
    },
    {
      "inputs": [
        {
          "internalType": "uint256",
          "name": "",
          "type": "uint256"
        }
      ],
      "name": "rooms",
      "outputs": [
        {
          "internalType": "uint256",
          "name": "id",
          "type": "uint256"
        },
        {
          "internalType": "address",
          "name": "partyA",
          "type": "address"
        },
        {
          "internalType": "address",
          "name": "partyB",
          "type": "address"
        },
        {
          "internalType": "string",
          "name": "contractIPFSHash",
          "type": "string"
        },
        {
          "internalType": "string",
          "name": "analysisHash",
          "type": "string"
        },
        {
          "internalType": "uint256",
          "name": "createdAt",
          "type": "uint256"
        },
        {
          "internalType": "enum AgreementRoom.RoomStatus",
          "name": "status",
          "type": "uint8"
        },
        {
          "internalType": "bool",
          "name": "partyAAgreed",
          "type": "bool"
        },
        {
          "internalType": "bool",
          "name": "partyBAgreed",
          "type": "bool"
        }
      ],
      "stateMutability": "view",
      "type": "function"
    },
    {
      "inputs": [
        {
          "internalType": "uint256",
          "name": "_roomId",
          "type": "uint256"
        },
        {
          "internalType": "string",
          "name": "_analysisHash",
          "type": "string"
        }
      ],
      "name": "submitAnalysis",
      "outputs": [],
      "stateMutability": "nonpayable",
      "type": "function"
    }
  ],
  "bytecode": "0x608060405234801561000f575f80fd5b5061129a8061001d5f395ff3fe608060405234801561000f575f80fd5b5060043610610055575f3560e01c806307a52cab146100595780631bae0ac8146100775780635d2f936b146100af578063bdbb85d4146100cb578063f606841e146100fb575b5f80fd5b610061610117565b60405161006e9190610902565b60405180910390f35b610091600480360381019061008c9190610956565b61011c565b6040516100a699989796959493929190610ad7565b60405180910390f35b6100c960048036038101906100c49190610c9c565b6102d6565b005b6100e560048036038101906100e09190610d20565b6103db565b6040516100f29190610902565b60405180910390f35b61011560048036038101906101109190610956565b610618565b005b5f5481565b6001602052805f5260405f205f91509050805f015490806001015f9054906101000a900473ffffffffffffffffffffffffffffffffffffffff1690806002015f9054906101000a900473ffffffffffffffffffffffffffffffffffffffff169080600301805461018b90610da7565b80601f01602080910402602001604051908101604052809291908181526020018280546101b790610da7565b80156102025780601f106101d957610100808354040283529160200191610202565b820191905f5260205f20905b8154815290600101906020018083116101e557829003601f168201915b50505050509080600401805461021790610da7565b80601f016020809104026020016040519081016040528092919081815260200182805461024390610da7565b801561028e5780601f106102655761010080835404028352916020019161028e565b820191905f5260205f20905b81548152906001019060200180831161027157829003601f168201915b505050505090806005015490806006015f9054906101000a900460ff16908060060160019054906101000a900460ff16908060060160029054906101000a900460ff16905089565b5f60015f8481526020019081526020015f2090505f60048111156102fd576102fc610a4a565b5b816006015f9054906101000a900460ff1660048111156103205761031f610a4a565b5b14610360576040517f08c379a000000000000000000000000000000000000000000000000000000000815260040161035790610e21565b60405180910390fd5b818160040190816103719190610fdc565b506001816006015f6101000a81548160ff0219169083600481111561039957610398610a4a565b5b0217905550827f9b2a433538ae0d00b4f1829e7e6741c8b317b30b79cdf37bd9f66e83e2aa173c836040516103ce91906110ab565b60405180910390a2505050565b5f805f808154809291906103ee906110f8565b9190505590506040518061012001604052808281526020013373ffffffffffffffffffffffffffffffffffffffff1681526020018573ffffffffffffffffffffffffffffffffffffffff16815260200184815260200160405180602001604052805f81525081526020014281526020015f600481111561047157610470610a4a565b5b81526020015f151581526020015f151581525060015f8381526020019081526020015f205f820151815f01556020820151816001015f6101000a81548173ffffffffffffffffffffffffffffffffffffffff021916908373ffffffffffffffffffffffffffffffffffffffff1602179055506040820151816002015f6101000a81548173ffffffffffffffffffffffffffffffffffffffff021916908373ffffffffffffffffffffffffffffffffffffffff160217905550606082015181600301908161053e9190610fdc565b5060808201518160040190816105549190610fdc565b5060a0820151816005015560c0820151816006015f6101000a81548160ff0219169083600481111561058957610588610a4a565b5b021790555060e08201518160060160016101000a81548160ff0219169083151502179055506101008201518160060160026101000a81548160ff021916908315150217905550905050807fed32b7d19d3df94f2059ed9a2434c5dba062b03a8fc031592868b559c2fe0db73386866040516106069392919061113f565b60405180910390a28091505092915050565b5f60015f8381526020019081526020015f209050600160048111156106405761063f610a4a565b5b816006015f9054906101000a900460ff16600481111561066357610662610a4a565b5b146106a3576040517f08c379a000000000000000000000000000000000000000000000000000000000815260040161069a906111c5565b60405180910390fd5b806001015f9054906101000a900473ffffffffffffffffffffffffffffffffffffffff1673ffffffffffffffffffffffffffffffffffffffff163373ffffffffffffffffffffffffffffffffffffffff16148061074e5750806002015f9054906101000a900473ffffffffffffffffffffffffffffffffffffffff1673ffffffffffffffffffffffffffffffffffffffff163373ffffffffffffffffffffffffffffffffffffffff16145b61078d576040517f08c379a00000000000000000000000000000000000000000000000000000000081526004016107849061122d565b60405180910390fd5b806001015f9054906101000a900473ffffffffffffffffffffffffffffffffffffffff1673ffffffffffffffffffffffffffffffffffffffff163373ffffffffffffffffffffffffffffffffffffffff16036108055760018160060160016101000a81548160ff021916908315150217905550610823565b60018160060160026101000a81548160ff0219169083151502179055505b817f42fccdb0313d18a707493a5d6c062e62d47ad811b7c30fd746dc6f92947cdc5433604051610853919061124b565b60405180910390a28060060160019054906101000a900460ff16801561088757508060060160029054906101000a900460ff165b156108e6576002816006015f6101000a81548160ff021916908360048111156108b3576108b2610a4a565b5b0217905550817fa4306298b6a50a47a0d534972efaa44e057d4a4f902e6b9e8ffa926418b408e760405160405180910390a25b5050565b5f819050919050565b6108fc816108ea565b82525050565b5f6020820190506109155f8301846108f3565b92915050565b5f604051905090565b5f80fd5b5f80fd5b610935816108ea565b811461093f575f80fd5b50565b5f813590506109508161092c565b92915050565b5f6020828403121561096b5761096a610924565b5b5f61097884828501610942565b91505092915050565b5f73ffffffffffffffffffffffffffffffffffffffff82169050919050565b5f6109aa82610981565b9050919050565b6109ba816109a0565b82525050565b5f81519050919050565b5f82825260208201905092915050565b5f5b838110156109f75780820151818401526020810190506109dc565b5f8484015250505050565b5f601f19601f8301169050919050565b5f610a1c826109c0565b610a2681856109ca565b9350610a368185602086016109da565b610a3f81610a02565b840191505092915050565b7f4e487b71000000000000000000000000000000000000000000000000000000005f52602160045260245ffd5b60058110610a8857610a87610a4a565b5b50565b5f819050610a9882610a77565b919050565b5f610aa782610a8b565b9050919050565b610ab781610a9d565b82525050565b5f8115159050919050565b610ad181610abd565b82525050565b5f61012082019050610aeb5f83018c6108f3565b610af8602083018b6109b1565b610b05604083018a6109b1565b8181036060830152610b178189610a12565b90508181036080830152610b2b8188610a12565b9050610b3a60a08301876108f3565b610b4760c0830186610aae565b610b5460e0830185610ac8565b610b62610100830184610ac8565b9a9950505050505050505050565b5f80fd5b5f80fd5b7f4e487b71000000000000000000000000000000000000000000000000000000005f52604160045260245ffd5b610bae82610a02565b810181811067ffffffffffffffff82111715610bcd57610bcc610b78565b5b80604052505050565b5f610bdf61091b565b9050610beb8282610ba5565b919050565b5f67ffffffffffffffff821115610c0a57610c09610b78565b5b610c1382610a02565b9050602081019050919050565b828183375f83830152505050565b5f610c40610c3b84610bf0565b610bd6565b905082815260208101848484011115610c5c57610c5b610b74565b5b610c67848285610c20565b509392505050565b5f82601f830112610c8357610c82610b70565b5b8135610c93848260208601610c2e565b91505092915050565b5f8060408385031215610cb257610cb1610924565b5b5f610cbf85828601610942565b925050602083013567ffffffffffffffff811115610ce057610cdf610928565b5b610cec85828601610c6f565b9150509250929050565b610cff816109a0565b8114610d09575f80fd5b50565b5f81359050610d1a81610cf6565b92915050565b5f8060408385031215610d3657610d35610924565b5b5f610d4385828601610d0c565b925050602083013567ffffffffffffffff811115610d6457610d63610928565b5b610d7085828601610c6f565b9150509250929050565b7f4e487b71000000000000000000000000000000000000000000000000000000005f52602260045260245ffd5b5f6002820490506001821680610dbe57607f821691505b602082108103610dd157610dd0610d7a565b5b50919050565b7f526f6f6d206973206e6f742070656e64696e67000000000000000000000000005f82015250565b5f610e0b6013836109ca565b9150610e1682610dd7565b602082019050919050565b5f6020820190508181035f830152610e3881610dff565b9050919050565b5f819050815f5260205f209050919050565b5f6020601f8301049050919050565b5f82821b905092915050565b5f60088302610e9b7fffffffffffffffffffffffffffffffffffffffffffffffffffffffffffffffff82610e60565b610ea58683610e60565b95508019841693508086168417925050509392505050565b5f819050919050565b5f610ee0610edb610ed6846108ea565b610ebd565b6108ea565b9050919050565b5f819050919050565b610ef983610ec6565b610f0d610f0582610ee7565b848454610e6c565b825550505050565b5f90565b610f21610f15565b610f2c818484610ef0565b505050565b5b81811015610f4f57610f445f82610f19565b600181019050610f32565b5050565b601f821115610f9457610f6581610e3f565b610f6e84610e51565b81016020851015610f7d578190505b610f91610f8985610e51565b830182610f31565b50505b505050565b5f82821c905092915050565b5f610fb45f1984600802610f99565b1980831691505092915050565b5f610fcc8383610fa5565b9150826002028217905092915050565b610fe5826109c0565b67ffffffffffffffff811115610ffe57610ffd610b78565b5b6110088254610da7565b611013828285610f53565b5f60209050601f831160018114611044575f8415611032578287015190505b61103c8582610fc1565b8655506110a3565b601f19841661105286610e3f565b5f5b8281101561107957848901518255600182019150602085019450602081019050611054565b868310156110965784890151611092601f891682610fa5565b8355505b6001600288020188555050505b505050505050565b5f6020820190508181035f8301526110c38184610a12565b905092915050565b7f4e487b71000000000000000000000000000000000000000000000000000000005f52601160045260245ffd5b5f611102826108ea565b91507fffffffffffffffffffffffffffffffffffffffffffffffffffffffffffffffff8203611134576111336110cb565b5b600182019050919050565b5f6060820190506111525f8301866109b1565b61115f60208301856109b1565b81810360408301526111718184610a12565b9050949350505050565b7f416e616c79736973206e6f74207375626d6974746564207965740000000000005f82015250565b5f6111af601a836109ca565b91506111ba8261117b565b602082019050919050565b5f6020820190508181035f8301526111dc816111a3565b9050919050565b7f4e6f74206120706172747920746f207468697320726f6f6d00000000000000005f82015250565b5f6112176018836109ca565b9150611222826111e3565b602082019050919050565b5f6020820190508181035f8301526112448161120b565b9050919050565b5f60208201905061125e5f8301846109b1565b9291505056fea2646970667358221220e2a55284192fcde9af5463c8bc2456861728a1bfd12cb35801a630378c8ff0be64736f6c63430008180033",
  "linkReferences": {},
  "deployedLinkReferences": {},
  "immutableReferences": {},
  "inputSourceName": "project/contracts/AgreementRoom.sol",
  "buildInfoId": "solc-0_8_24-384260f1dd5cc565a63ed825665126098fc196fb"
}