{
  "_format": "hh3-artifact-1",
  "contractName": "AgreementRoom",
  "sourceName": "contracts/AgreementRoom.sol",
  "abi": [
    {
      "inputs": [
        {
          "internalType": "address",
          "name": "_agentAddress",
          "type": "address"
        }
      ],
      "stateMutability": "nonpayable",
      "type": "constructor"
    },
    {
      "anonymous": false,
      "inputs": [
        {
          "indexed": true,
          "internalType": "address",
          "name": "agent",
          "type": "address"
        }
      ],
      "name": "AgentRegistered",
      "type": "event"
    },
    {
      "anonymous": false,
      "inputs": [
        {
          "indexed": true,
          "internalType": "uint256",
          "name": "roomId",
          "type": "uint256"
        },
        {
          "indexed": false,
          "internalType": "string",
          "name": "finalTermsHash",
          "type": "string"
        },
        {
          "indexed": false,
          "internalType": "uint256",
          "name": "timestamp",
          "type": "uint256"
        }
      ],
      "name": "AgreementFinalized",
      "type": "event"
    },
    {
      "anonymous": false,
      "inputs": [
        {
          "indexed": true,
          "internalType": "uint256",
          "name": "roomId",
          "type": "uint256"
        },
        {
          "indexed": false,
          "internalType": "string",
          "name": "analysisHash",
          "type": "string"
        }
      ],
      "name": "AnalysisSubmitted",
      "type": "event"
    },
    {
      "anonymous": false,
      "inputs": [
        {
          "indexed": true,
          "internalType": "uint256",
          "name": "roomId",
          "type": "uint256"
        },
        {
          "indexed": false,
          "internalType": "address",
          "name": "raisedBy",
          "type": "address"
        }
      ],
      "name": "DisputeRaised",
      "type": "event"
    },
    {
      "anonymous": false,
      "inputs": [
        {
          "indexed": true,
          "internalType": "uint256",
          "name": "roomId",
          "type": "uint256"
        },
        {
          "indexed": false,
          "internalType": "string",
          "name": "updateHash",
          "type": "string"
        }
      ],
      "name": "NegotiationUpdate",
      "type": "event"
    },
    {
      "anonymous": false,
      "inputs": [
        {
          "indexed": true,
          "internalType": "uint256",
          "name": "roomId",
          "type": "uint256"
        },
        {
          "indexed": false,
          "internalType": "address",
          "name": "party",
          "type": "address"
        }
      ],
      "name": "PartyAgreed",
      "type": "event"
    },
    {
      "anonymous": false,
      "inputs": [
        {
          "indexed": true,
          "internalType": "uint256",
          "name": "roomId",
          "type": "uint256"
        },
        {
          "indexed": false,
          "internalType": "address",
          "name": "partyA",
          "type": "address"
        },
        {
          "indexed": false,
          "internalType": "address",
          "name": "partyB",
          "type": "address"
        },
        {
          "indexed": false,
          "internalType": "string",
          "name": "contractIPFSHash",
          "type": "string"
        }
      ],
      "name": "RoomCreated",
      "type": "event"
    },
    {
      "inputs": [],
      "name": "agentAddress",
      "outputs": [
        {
          "internalType": "address",
          "name": "",
          "type": "address"
        }
      ],
      "stateMutability": "view",
      "type": "function"
    },
    {
      "inputs": [
        {
          "internalType": "uint256",
          "name": "_roomId",
          "type": "uint256"
        },
        {
          "internalType": "string",
          "name": "_finalTermsHash",
          "type": "string"
        }
      ],
      "name": "agree",
      "outputs": [],
      "stateMutability": "nonpayable",
      "type": "function"
    },
    {
      "inputs": [
        {
          "internalType": "address",
          "name": "_partyB",
          "type": "address"
        },
        {
          "internalType": "string",
          "name": "_contractIPFSHash",
          "type": "string"
        }
      ],
      "name": "createRoom",
      "outputs": [
        {
          "internalType": "uint256",
          "name": "",
          "type": "uint256"
        }
      ],
      "stateMutability": "nonpayable",
      "type": "function"
    },
    {
      "inputs": [
        {
          "internalType": "uint256",
          "name": "_roomId",
          "type": "uint256"
        }
      ],
      "name": "getRoom",
      "outputs": [
        {
          "internalType": "uint256",
          "name": "id",
          "type": "uint256"
        },
        {
          "internalType": "address",
          "name": "partyA",
          "type": "address"
        },
        {
          "internalType": "address",
          "name": "partyB",
          "type": "address"
        },
        {
          "internalType": "string",
          "name": "contractIPFSHash",
          "type": "string"
        },
        {
          "internalType": "string",
          "name": "analysisHash",
          "type": "string"
        },
        {
          "internalType": "string",
          "name": "finalTermsHash",
          "type": "string"
        },
        {
          "internalType": "uint256",
          "name": "createdAt",
          "type": "uint256"
        },
        {
          "internalType": "uint256",
          "name": "finalizedAt",
          "type": "uint256"
        },
        {
          "internalType": "enum AgreementRoom.RoomStatus",
          "name": "status",
          "type": "uint8"
        },
        {
          "internalType": "bool",
          "name": "partyAAgreed",
          "type": "bool"
        },
        {
          "internalType": "bool",
          "name": "partyBAgreed",
          "type": "bool"
        }
      ],
      "stateMutability": "view",
      "type": "function"
    },
    {
      "inputs": [
        {
          "internalType": "uint256",
          "name": "_roomId",
          "type": "uint256"
        },
        {
          "internalType": "string",
          "name": "_updateHash",
          "type": "string"
        }
      ],
      "name": "logNegotiationUpdate",
      "outputs": [],
      "stateMutability": "nonpayable",
      "type": "function"
    },
    {
      "inputs": [],
      "name": "nextRoomId",
      "outputs": [
        {
          "internalType": "uint256",
          "name": "",
          "type": "uint256"
        }
      ],
      "stateMutability": "view",
      "type": "function"
    },
    {
      "inputs": [],
      "name": "owner",
      "outputs": [
        {
          "internalType": "address",
          "name": "",
          "type": "address"
        }
      ],
      "stateMutability": "view",
      "type": "function"
    },
    {
      "inputs": [
        {
          "internalType": "uint256",
          "name": "_roomId",
          "type": "uint256"
        }
      ],
      "name": "raiseDispute",
      "outputs": [],
      "stateMutability": "nonpayable",
      "type": "function"
    },
    {
      "inputs": [
        {
          "internalType": "uint256",
          "name": "",
          "type": "uint256"
        }
      ],
      "name": "rooms",
      "outputs": [
        {
          "internalType": "uint256",
          "name": "id",
          "type": "uint256"
        },
        {
          "internalType": "address",
          "name": "partyA",
          "type": "address"
        },
        {
          "internalType": "address",
          "name": "partyB",
          "type": "address"
        },
        {
          "internalType": "string",
          "name": "contractIPFSHash",
          "type": "string"
        },
        {
          "internalType": "string",
          "name": "analysisHash",
          "type": "string"
        },
        {
          "internalType": "string",
          "name": "finalTermsHash",
          "type": "string"
        },
        {
          "internalType": "uint256",
          "name": "createdAt",
          "type": "uint256"
        },
        {
          "internalType": "uint256",
          "name": "finalizedAt",
          "type": "uint256"
        },
        {
          "internalType": "enum AgreementRoom.RoomStatus",
          "name": "status",
          "type": "uint8"
        },
        {
          "internalType": "bool",
          "name": "partyAAgreed",
          "type": "bool"
        },
        {
          "internalType": "bool",
          "name": "partyBAgreed",
          "type": "bool"
        }
      ],
      "stateMutability": "view",
      "type": "function"
    },
    {
      "inputs": [
        {
          "internalType": "address",
          "name": "_newAgent",
          "type": "address"
        }
      ],
      "name": "setAgentAddress",
      "outputs": [],
      "stateMutability": "nonpayable",
      "type": "function"
    },
    {
      "inputs": [
        {
          "internalType": "uint256",
          "name": "_roomId",
          "type": "uint256"
        },
        {
          "internalType": "string",
          "name": "_analysisHash",
          "type": "string"
        }
      ],
      "name": "submitAnalysis",
      "outputs": [],
      "stateMutability": "nonpayable",
      "type": "function"
    }
  ],
  "bytecode": "0x608060405234801562000010575f80fd5b50604051620023a7380380620023a7833981810160405281019062000036919062000165565b3360015f6101000a81548173ffffffffffffffffffffffffffffffffffffffff021916908373ffffffffffffffffffffffffffffffffffffffff1602179055508060025f6101000a81548173ffffffffffffffffffffffffffffffffffffffff021916908373ffffffffffffffffffffffffffffffffffffffff1602179055508073ffffffffffffffffffffffffffffffffffffffff167f82d0829d9d481e4cb9913897f9b9c903271c4db68c7b3324071d2a7e3b2c5ff060405160405180910390a25062000195565b5f80fd5b5f73ffffffffffffffffffffffffffffffffffffffff82169050919050565b5f6200012f8262000104565b9050919050565b620001418162000123565b81146200014c575f80fd5b50565b5f815190506200015f8162000136565b92915050565b5f602082840312156200017d576200017c62000100565b5b5f6200018c848285016200014f565b91505092915050565b61220480620001a35f395ff3fe608060405234801561000f575f80fd5b50600436106100a7575f3560e01c80638213e4241161006f5780638213e42414610177578063895ce185146101935780638da5cb5b146101af5780639f44a238146101cd578063a5c1674e146101e9578063bdbb85d414610205576100a7565b806307a52cab146100ab5780631bae0ac8146100c957806338613690146101035780635d2f936b146101215780636d8a74cb1461013d575b5f80fd5b6100b3610235565b6040516100c091906114b1565b60405180910390f35b6100e360048036038101906100de9190611505565b61023a565b6040516100fa9b9a99989796959493929190611686565b60405180910390f35b61010b610486565b6040516101189190611744565b60405180910390f35b61013b60048036038101906101369190611889565b6104ab565b005b61015760048036038101906101529190611505565b61067e565b60405161016e9b9a99989796959493929190611686565b60405180910390f35b610191600480360381019061018c9190611889565b6108fa565b005b6101ad60048036038101906101a8919061190d565b610cb7565b005b6101b7610dcc565b6040516101c49190611744565b60405180910390f35b6101e760048036038101906101e29190611889565b610df1565b005b61020360048036038101906101fe9190611505565b610f48565b005b61021f600480360381019061021a9190611938565b6111b2565b60405161022c91906114b1565b60405180910390f35b5f5481565b6003602052805f5260405f205f91509050805f015490806001015f9054906101000a900473ffffffffffffffffffffffffffffffffffffffff1690806002015f9054906101000a900473ffffffffffffffffffffffffffffffffffffffff16908060030180546102a9906119bf565b80601f01602080910402602001604051908101604052809291908181526020018280546102d5906119bf565b80156103205780601f106102f757610100808354040283529160200191610320565b820191905f5260205f20905b81548152906001019060200180831161030357829003601f168201915b505050505090806004018054610335906119bf565b80601f0160208091040260200160405190810160405280929190818152602001828054610361906119bf565b80156103ac5780601f10610383576101008083540402835291602001916103ac565b820191905f5260205f20905b81548152906001019060200180831161038f57829003601f168201915b5050505050908060050180546103c1906119bf565b80601f01602080910402602001604051908101604052809291908181526020018280546103ed906119bf565b80156104385780601f1061040f57610100808354040283529160200191610438565b820191905f5260205f20905b81548152906001019060200180831161041b57829003601f168201915b505050505090806006015490806007015490806008015f9054906101000a900460ff16908060080160019054906101000a900460ff16908060080160029054906101000a900460ff1690508b565b60025f9054906101000a900473ffffffffffffffffffffffffffffffffffffffff1681565b60025f9054906101000a900473ffffffffffffffffffffffffffffffffffffffff1673ffffffffffffffffffffffffffffffffffffffff163373ffffffffffffffffffffffffffffffffffffffff161461053a576040517f08c379a000000000000000000000000000000000000000000000000000000000815260040161053190611a5f565b60405180910390fd5b5f60035f8481526020019081526020015f2090505f6005811115610561576105606115f9565b5b816008015f9054906101000a900460ff166005811115610584576105836115f9565b5b14806105c457506001600581111561059f5761059e6115f9565b5b816008015f9054906101000a900460ff1660058111156105c2576105c16115f9565b5b145b610603576040517f08c379a00000000000000000000000000000000000000000000000000000000081526004016105fa90611ac7565b60405180910390fd5b818160040190816106149190611c82565b506002816008015f6101000a81548160ff0219169083600581111561063c5761063b6115f9565b5b0217905550827f9b2a433538ae0d00b4f1829e7e6741c8b317b30b79cdf37bd9f66e83e2aa173c836040516106719190611d51565b60405180910390a2505050565b5f805f60608060605f805f805f8060035f8e81526020019081526020015f209050805f0154816001015f9054906101000a900473ffffffffffffffffffffffffffffffffffffffff16826002015f9054906101000a900473ffffffffffffffffffffffffffffffffffffffff1683600301846004018560050186600601548760070154886008015f9054906101000a900460ff168960080160019054906101000a900460ff168a60080160029054906101000a900460ff16878054610742906119bf565b80601f016020809104026020016040519081016040528092919081815260200182805461076e906119bf565b80156107b95780601f10610790576101008083540402835291602001916107b9565b820191905f5260205f20905b81548152906001019060200180831161079c57829003601f168201915b505050505097508680546107cc906119bf565b80601f01602080910402602001604051908101604052809291908181526020018280546107f8906119bf565b80156108435780601f1061081a57610100808354040283529160200191610843565b820191905f5260205f20905b81548152906001019060200180831161082657829003601f168201915b50505050509650858054610856906119bf565b80601f0160208091040260200160405190810160405280929190818152602001828054610882906119bf565b80156108cd5780601f106108a4576101008083540402835291602001916108cd565b820191905f5260205f20905b8154815290600101906020018083116108b057829003601f168201915b505050505095509b509b509b509b509b509b509b509b509b509b509b505091939597999b90929496989a50565b815f60035f8381526020019081526020015f209050806001015f9054906101000a900473ffffffffffffffffffffffffffffffffffffffff1673ffffffffffffffffffffffffffffffffffffffff163373ffffffffffffffffffffffffffffffffffffffff1614806109ba5750806002015f9054906101000a900473ffffffffffffffffffffffffffffffffffffffff1673ffffffffffffffffffffffffffffffffffffffff163373ffffffffffffffffffffffffffffffffffffffff16145b6109f9576040517f08c379a00000000000000000000000000000000000000000000000000000000081526004016109f090611dbb565b60405180910390fd5b5f60035f8681526020019081526020015f20905060026005811115610a2157610a206115f9565b5b816008015f9054906101000a900460ff166005811115610a4457610a436115f9565b5b1480610a84575060036005811115610a5f57610a5e6115f9565b5b816008015f9054906101000a900460ff166005811115610a8257610a816115f9565b5b145b610ac3576040517f08c379a0000000000000000000000000000000000000000000000000000000008152600401610aba90611e23565b60405180910390fd5b5f84511115610adf5783816005019081610add9190611c82565b505b806001015f9054906101000a900473ffffffffffffffffffffffffffffffffffffffff1673ffffffffffffffffffffffffffffffffffffffff163373ffffffffffffffffffffffffffffffffffffffff1603610b575760018160080160016101000a81548160ff021916908315150217905550610b75565b60018160080160026101000a81548160ff0219169083151502179055505b847f42fccdb0313d18a707493a5d6c062e62d47ad811b7c30fd746dc6f92947cdc5433604051610ba59190611744565b60405180910390a28060080160019054906101000a900460ff161580610bda57508060080160029054906101000a900460ff16155b15610c0c576003816008015f6101000a81548160ff02191690836005811115610c0657610c056115f9565b5b02179055505b8060080160019054906101000a900460ff168015610c3857508060080160029054906101000a900460ff165b15610cb0576004816008015f6101000a81548160ff02191690836005811115610c6457610c636115f9565b5b0217905550428160070181905550847f47e408fa19377508703aa8b641ba4ba00d868559f7710df8da4e989dc643c5338260050142604051610ca7929190611ec2565b60405180910390a25b5050505050565b60015f9054906101000a900473ffffffffffffffffffffffffffffffffffffffff1673ffffffffffffffffffffffffffffffffffffffff163373ffffffffffffffffffffffffffffffffffffffff1614610d46576040517f08c379a0000000000000000000000000000000000000000000000000000000008152600401610d3d90611f3a565b60405180910390fd5b8060025f6101000a81548173ffffffffffffffffffffffffffffffffffffffff021916908373ffffffffffffffffffffffffffffffffffffffff1602179055508073ffffffffffffffffffffffffffffffffffffffff167f82d0829d9d481e4cb9913897f9b9c903271c4db68c7b3324071d2a7e3b2c5ff060405160405180910390a250565b60015f9054906101000a900473ffffffffffffffffffffffffffffffffffffffff1681565b60025f9054906101000a900473ffffffffffffffffffffffffffffffffffffffff1673ffffffffffffffffffffffffffffffffffffffff163373ffffffffffffffffffffffffffffffffffffffff1614610e80576040517f08c379a0000000000000000000000000000000000000000000000000000000008152600401610e7790611a5f565b60405180910390fd5b5f60035f8481526020019081526020015f20905060026005811115610ea857610ea76115f9565b5b816008015f9054906101000a900460ff166005811115610ecb57610eca6115f9565b5b14610f0b576040517f08c379a0000000000000000000000000000000000000000000000000000000008152600401610f0290611fa2565b60405180910390fd5b827f25049304df31b3cf7a5a958809474ef5ead90df12a12f0b73b5020caaa7351e283604051610f3b9190611d51565b60405180910390a2505050565b805f60035f8381526020019081526020015f209050806001015f9054906101000a900473ffffffffffffffffffffffffffffffffffffffff1673ffffffffffffffffffffffffffffffffffffffff163373ffffffffffffffffffffffffffffffffffffffff1614806110085750806002015f9054906101000a900473ffffffffffffffffffffffffffffffffffffffff1673ffffffffffffffffffffffffffffffffffffffff163373ffffffffffffffffffffffffffffffffffffffff16145b611047576040517f08c379a000000000000000000000000000000000000000000000000000000000815260040161103e90611dbb565b60405180910390fd5b5f60035f8581526020019081526020015f2090506004600581111561106f5761106e6115f9565b5b816008015f9054906101000a900460ff166005811115611092576110916115f9565b5b036110d2576040517f08c379a00000000000000000000000000000000000000000000000000000000081526004016110c990612030565b60405180910390fd5b5f60058111156110e5576110e46115f9565b5b816008015f9054906101000a900460ff166005811115611108576111076115f9565b5b03611148576040517f08c379a000000000000000000000000000000000000000000000000000000000815260040161113f90612098565b60405180910390fd5b6005816008015f6101000a81548160ff0219169083600581111561116f5761116e6115f9565b5b0217905550837f84a477df8a28a4276ca6dee4458a06c3015f30c477d9c949ede4e13ff8a552b4336040516111a49190611744565b60405180910390a250505050565b5f8073ffffffffffffffffffffffffffffffffffffffff168373ffffffffffffffffffffffffffffffffffffffff1603611221576040517f08c379a000000000000000000000000000000000000000000000000000000000815260040161121890612100565b60405180910390fd5b5f805f8154809291906112339061214b565b9190505590506040518061016001604052808281526020013373ffffffffffffffffffffffffffffffffffffffff1681526020018573ffffffffffffffffffffffffffffffffffffffff16815260200184815260200160405180602001604052805f815250815260200160405180602001604052805f81525081526020014281526020015f81526020015f60058111156112d0576112cf6115f9565b5b81526020015f151581526020015f151581525060035f8381526020019081526020015f205f820151815f01556020820151816001015f6101000a81548173ffffffffffffffffffffffffffffffffffffffff021916908373ffffffffffffffffffffffffffffffffffffffff1602179055506040820151816002015f6101000a81548173ffffffffffffffffffffffffffffffffffffffff021916908373ffffffffffffffffffffffffffffffffffffffff160217905550606082015181600301908161139d9190611c82565b5060808201518160040190816113b39190611c82565b5060a08201518160050190816113c99190611c82565b5060c0820151816006015560e08201518160070155610100820151816008015f6101000a81548160ff02191690836005811115611409576114086115f9565b5b02179055506101208201518160080160016101000a81548160ff0219169083151502179055506101408201518160080160026101000a81548160ff021916908315150217905550905050807fed32b7d19d3df94f2059ed9a2434c5dba062b03a8fc031592868b559c2fe0db733868660405161148793929190612192565b60405180910390a28091505092915050565b5f819050919050565b6114ab81611499565b82525050565b5f6020820190506114c45f8301846114a2565b92915050565b5f604051905090565b5f80fd5b5f80fd5b6114e481611499565b81146114ee575f80fd5b50565b5f813590506114ff816114db565b92915050565b5f6020828403121561151a576115196114d3565b5b5f611527848285016114f1565b91505092915050565b5f73ffffffffffffffffffffffffffffffffffffffff82169050919050565b5f61155982611530565b9050919050565b6115698161154f565b82525050565b5f81519050919050565b5f82825260208201905092915050565b5f5b838110156115a657808201518184015260208101905061158b565b5f8484015250505050565b5f601f19601f8301169050919050565b5f6115cb8261156f565b6115d58185611579565b93506115e5818560208601611589565b6115ee816115b1565b840191505092915050565b7f4e487b71000000000000000000000000000000000000000000000000000000005f52602160045260245ffd5b60068110611637576116366115f9565b5b50565b5f81905061164782611626565b919050565b5f6116568261163a565b9050919050565b6116668161164c565b82525050565b5f8115159050919050565b6116808161166c565b82525050565b5f6101608201905061169a5f83018e6114a2565b6116a7602083018d611560565b6116b4604083018c611560565b81810360608301526116c6818b6115c1565b905081810360808301526116da818a6115c1565b905081810360a08301526116ee81896115c1565b90506116fd60c08301886114a2565b61170a60e08301876114a2565b61171861010083018661165d565b611726610120830185611677565b611734610140830184611677565b9c9b505050505050505050505050565b5f6020820190506117575f830184611560565b92915050565b5f80fd5b5f80fd5b7f4e487b71000000000000000000000000000000000000000000000000000000005f52604160045260245ffd5b61179b826115b1565b810181811067ffffffffffffffff821117156117ba576117b9611765565b5b80604052505050565b5f6117cc6114ca565b90506117d88282611792565b919050565b5f67ffffffffffffffff8211156117f7576117f6611765565b5b611800826115b1565b9050602081019050919050565b828183375f83830152505050565b5f61182d611828846117dd565b6117c3565b90508281526020810184848401111561184957611848611761565b5b61185484828561180d565b509392505050565b5f82601f8301126118705761186f61175d565b5b813561188084826020860161181b565b91505092915050565b5f806040838503121561189f5761189e6114d3565b5b5f6118ac858286016114f1565b925050602083013567ffffffffffffffff8111156118cd576118cc6114d7565b5b6118d98582860161185c565b9150509250929050565b6118ec8161154f565b81146118f6575f80fd5b50565b5f81359050611907816118e3565b92915050565b5f60208284031215611922576119216114d3565b5b5f61192f848285016118f9565b91505092915050565b5f806040838503121561194e5761194d6114d3565b5b5f61195b858286016118f9565b925050602083013567ffffffffffffffff81111561197c5761197b6114d7565b5b6119888582860161185c565b9150509250929050565b7f4e487b71000000000000000000000000000000000000000000000000000000005f52602260045260245ffd5b5f60028204905060018216806119d657607f821691505b6020821081036119e9576119e8611992565b5b50919050565b7f4f6e6c7920746865207265676973746572656420436f6e636f726469612061675f8201527f656e742063616e2063616c6c2074686973000000000000000000000000000000602082015250565b5f611a49603183611579565b9150611a54826119ef565b604082019050919050565b5f6020820190508181035f830152611a7681611a3d565b9050919050565b7f526f6f6d206e6f74206177616974696e6720616e616c797369730000000000005f82015250565b5f611ab1601a83611579565b9150611abc82611a7d565b602082019050919050565b5f6020820190508181035f830152611ade81611aa5565b9050919050565b5f819050815f5260205f209050919050565b5f6020601f8301049050919050565b5f82821b905092915050565b5f60088302611b417fffffffffffffffffffffffffffffffffffffffffffffffffffffffffffffffff82611b06565b611b4b8683611b06565b95508019841693508086168417925050509392505050565b5f819050919050565b5f611b86611b81611b7c84611499565b611b63565b611499565b9050919050565b5f819050919050565b611b9f83611b6c565b611bb3611bab82611b8d565b848454611b12565b825550505050565b5f90565b611bc7611bbb565b611bd2818484611b96565b505050565b5b81811015611bf557611bea5f82611bbf565b600181019050611bd8565b5050565b601f821115611c3a57611c0b81611ae5565b611c1484611af7565b81016020851015611c23578190505b611c37611c2f85611af7565b830182611bd7565b50505b505050565b5f82821c905092915050565b5f611c5a5f1984600802611c3f565b1980831691505092915050565b5f611c728383611c4b565b9150826002028217905092915050565b611c8b8261156f565b67ffffffffffffffff811115611ca457611ca3611765565b5b611cae82546119bf565b611cb9828285611bf9565b5f60209050601f831160018114611cea575f8415611cd8578287015190505b611ce28582611c67565b865550611d49565b601f198416611cf886611ae5565b5f5b82811015611d1f57848901518255600182019150602085019450602081019050611cfa565b86831015611d3c5784890151611d38601f891682611c4b565b8355505b6001600288020188555050505b505050505050565b5f6020820190508181035f830152611d6981846115c1565b905092915050565b7f4e6f74206120706172747920746f207468697320726f6f6d00000000000000005f82015250565b5f611da5601883611579565b9150611db082611d71565b602082019050919050565b5f6020820190508181035f830152611dd281611d99565b9050919050565b7f4e6f7420726561647920666f722061677265656d656e740000000000000000005f82015250565b5f611e0d601783611579565b9150611e1882611dd9565b602082019050919050565b5f6020820190508181035f830152611e3a81611e01565b9050919050565b5f8154611e4d816119bf565b611e578186611579565b9450600182165f8114611e715760018114611e8757611eb9565b60ff198316865281151560200286019350611eb9565b611e9085611ae5565b5f5b83811015611eb157815481890152600182019150602081019050611e92565b808801955050505b50505092915050565b5f6040820190508181035f830152611eda8185611e41565b9050611ee960208301846114a2565b9392505050565b7f4f6e6c79206f776e6572000000000000000000000000000000000000000000005f82015250565b5f611f24600a83611579565b9150611f2f82611ef0565b602082019050919050565b5f6020820190508181035f830152611f5181611f18565b9050919050565b7f526f6f6d206e6f7420696e206e65676f74696174696f6e0000000000000000005f82015250565b5f611f8c601783611579565b9150611f9782611f58565b602082019050919050565b5f6020820190508181035f830152611fb981611f80565b9050919050565b7f43616e6e6f74206469737075746520612066696e616c697a65642061677265655f8201527f6d656e7400000000000000000000000000000000000000000000000000000000602082015250565b5f61201a602483611579565b915061202582611fc0565b604082019050919050565b5f6020820190508181035f8301526120478161200e565b9050919050565b7f4e6f7468696e6720746f206469737075746520796574000000000000000000005f82015250565b5f612082601683611579565b915061208d8261204e565b602082019050919050565b5f6020820190508181035f8301526120af81612076565b9050919050565b7f496e76616c6964207061727479204220616464726573730000000000000000005f82015250565b5f6120ea601783611579565b91506120f5826120b6565b602082019050919050565b5f6020820190508181035f830152612117816120de565b9050919050565b7f4e487b71000000000000000000000000000000000000000000000000000000005f52601160045260245ffd5b5f61215582611499565b91507fffffffffffffffffffffffffffffffffffffffffffffffffffffffffffffffff82036121875761218661211e565b5b600182019050919050565b5f6060820190506121a55f830186611560565b6121b26020830185611560565b81810360408301526121c481846115c1565b905094935050505056fea2646970667358221220dd496fc16e0c4fc55a05524caef01c4e705590f6c8ce4d16a5e9ab4a4e1723fd64736f6c63430008180033",
  "linkReferences": {},
  "deployedLinkReferences": {},
  "immutableReferences": {},
  "inputSourceName": "project/contracts/AgreementRoom.sol",
  "buildInfoId": "solc-0_8_24-774fd242817b6424fe455773b38053d8dfdfeace"
}